:100000000C9434000C943E000C943E000C943E0082
:100010000C943E000C9453000C943E000C943E0053
:100020000C943E000C943E000C943E000C943E0058
:100030000C943E000C943E000C943E000C943E0048
:100040000C943E000C943E000C943E000C943E0038
:100050000C943E000C943E000C943E000C943E0028
:100060000C943E000C943E0011241FBECFEFD8E04C
:10007000DEBFCDBF0E9440000C947D000C940000B8
:10008000F8948091680084608093680080916D008E
:10009000846880936D0088E284B915B81AB88FEF30
:1000A0008BB97894FFCF1F920F920FB60F92112445
:1000B0002F933F938F939F93EF93FF934F9903C099
:1000C00085B190E204C04A9904C085B198E08927BF
:1000D00085B980ED97E020E931E0F9013197F1F73A
:1000E0000197D9F7FF91EF919F918F913F912F91B8
:0E00F0000F900FBE0F901F901895F894FFCF41
:00000001FF
