:100000000C9434000C943E000C943E000C943E0082
:100010000C943E000C943E000C943E000C943E0068
:100020000C943E000C943E000C943E000C94400056
:100030000C943E000C9452000C943E000C943E0034
:100040000C943E000C943E000C943E000C943E0038
:100050000C943E000C943E000C943E000C943E0028
:100060000C943E000C943E0011241FBECFEFD8E04C
:10007000DEBFCDBF0E946A000C9483000C94000088
:100080001F920F920FB60F9211248F939F9395B1E9
:1000900080E2892785B99F918F910F900FBE0F90B5
:1000A0001F9018951F920F920FB60F9211248F93E5
:1000B0009F9387EF92EC909385008093840095B195
:1000C00080E2892785B99F918F910F900FBE0F9085
:1000D0001F901895F89410928000109281008091E2
:1000E000810085608093810087EF92EC909385007A
:1000F0008093840080916F00816080936F0078947A
:0A010000259A2D9AFFCFF894FFCF47
:00000001FF
